:020000040800F2
:10000000480F002045010008A14000081D340008E9
:10001000CD39000825120008CD520008000000006C
:10002000000000000000000000000000BD470008C4
:100030002B13000800000000A3400008B94A000884
:100040005F0100085F0100085F0100085F01000810
:100050005F0100085F0100085F0100085F01000800
:100060005F0100085F0100085F0100085F010008F0
:100070005F010008751200085F0100085F010008B9
:10008000811200088D1200085F0100085F0100085E
:100090005F0100085F0100085F0100085F010008C0
:1000A0005F0100085F0100085F0100085F010008B0
:1000B0005F0100085F0100085F0100085F010008A0
:1000C0005F0100085F0100085F0100085F01000890
:1000D0005F010008255200087D520008A552000863
:1000E0002D1300085F0100085F0100085F01000890
:1000F0005F0100085F0100085F0100085F01000860
:100100005F0100085F0100085F0100085F0100084F
:10011000054E00085F010008294B0008354B000818
:100120005F0100085F0100085F0100085F0100082F
:10013000DFF80CD000F082FC004800478D63000817
:10014000480F00200648804706480047FEE7FEE7C4
:10015000FEE7FEE7FEE7FEE7FEE7FEE7FEE7FEE777
:10016000254B000831010008202A04DB203A21FA3F
:1001700002F00021704721FA02F3D040C2F12002C0
:10018000914008431946704740EA01039B0703D09A
:1001900009E008C9121F08C0042AFAD203E011F8C6
:1001A000013B00F8013B521EF9D27047D2B201E088
:1001B00000F8012B491EFBD270470022F6E710B56C
:1001C00013460A4604461946FFF7F0FF204610BDC5
:1001D00030B505462A460B4612F8010B13F8014BC1
:1001E00008B1A042F8D01CB1002802D06D1CF1E784
:1001F000284630BD10B5044604E00B7800F8013BFA
:1002000003B1491C521EF8D2204610BD421C10F802
:10021000011B0029FBD1801A704770B5064605F016
:10022000D3FA046805460A220021304600F00AFB92
:100230002C6070BD30B480EA010202F0004530F05D
:10024000004221F0004013D090B1C30DD40DC2F391
:100250001601C0F31600E41A41F4000140F4000254
:100260007D34914201D3641C00E04900002C02DA85
:1002700030BC002070474FF400000023914201D3AE
:10028000891A034340084FEA4101F7D151B1914225
:1002900002D14FF0004105E002D24FF0010101E030
:1002A0006FF0010103EBC450284430BC00F002BBE6
:1002B000420005D0C0F3C7525242914201DC0020F7
:1002C000704700EBC15070472DE9FE4F804681EA30
:1002D0000300C00F0C46009021F0004123F00045C0
:1002E000B8EB0200A94105D24046214690461C4683
:1002F0000B46024623F00040104347D0270DC7F3BA
:100300000A00C3F30A510290401A019040286BDAA8
:10031000C3F3130040F4801B0098924620B10023E1
:10032000D2EB030A63EB0B0B01985946C0F1400274
:10033000504600F018FA06460D4650465946019AB6
:1003400000F020FA10EB08006141002487EA115206
:1003500084EAE7731A4340D0009A62B3019A012AF3
:100360004FEA075215DC001B61EB02014FF000421F
:1003700002EA0752CDE90042001C41F580113246E5
:100380002B4600F0DDFA03B0BDE8F08F4046214671
:10039000F9E7001B61EB0201001C41F58013001816
:1003A0005B412018A2F5001747EB030140EAD57026
:1003B000B6196D4111E06D084FEA360645EAC07581
:1003C0004FEA0752001B61EB0201001C41F580114E
:1003D00049084FEA30000019514132462B4603B01C
:1003E000BDE8F04F00F09DBA0098012240000023C4
:1003F000D0EB020263EBE073009821464FEAE07411
:10040000B8EB000061EB0401E9E783F000435BE730
:1004100081F0004158E72DE9FE4F81EA030404F022
:10042000004421F0004100944FF0000B23F0004302
:1004300050EA01045ED052EA03045BD0C3F30A54CD
:10044000C1F30A552C44A4F2F3340194A0FB0254E6
:10045000C1F3130141F48011C3F3130343F4801378
:1004600001FB024400FB034E840A970A44EA8154CC
:1004700047EA8357A4FB076802958D0A05FB0785A9
:100480004FEA932C04FB0C542705029D4FEA0658B3
:1004900047EA1637B5EB08056EEB070C870E920E90
:1004A00047EA811742EA8312A7FB0201B6EB0B0170
:1004B00064EB00042B0D43EA0C335E1844EB1C5034
:1004C000DA465146E7FB0201C5F313044FEA0B334A
:1004D00043EA14534FEA0432019C43EA0603A4F1B1
:1004E0000C040294009CCDE900B400F029FA03B09A
:1004F000BDE8F08F00200146F9E72DE9F04D81EAD3
:10050000030404F0004B21F0004514464FF0000AAC
:1005100023F0004150EA050220D054EA01021DD028
:10052000C5F30A570246C5F31303C1F31300C1F321
:100530000A5640F4801543F48013A7EB0608101BFD
:10054000D64608F2FD3873EB050002D308F1010826
:1005500001E092185B41B8F1000F03DA0020014678
:10056000BDE8F08D00204FF48011064684460EE071
:10057000171B73EB050705D3121B63EB050306433B
:100580004CEA010C49084FEA300092185B4150EAEE
:100590000107EDD152EA030012D082EA040083EA97
:1005A0000501084305D0101BAB4106D201220023F0
:1005B00006E000224FF0004302E06FF0010253100A
:1005C0001AEB06004CEB085110EB0A0041EB0B0153
:1005D000BDE8F04D00F0A5B970B521F0004303432C
:1005E0000CD0C1F30A550024D5EB040564EB0403D9
:1005F000D617AD1AB34102DB0020014670BD2018AA
:1006000041EB025170BD96230022114600F05BB908
:100610000EB540F2334102910021CDE900110A46A6
:100620000B4600F08DF903B000BD20F00040C10D75
:10063000C0F3160040F400007F2901DA0020704763
:10064000962903DCC1F19601C8407047963988406D
:10065000704700F0004230F000400AD0C10D01F5B3
:100660006071C0F3160042EA0151C208400711430D
:10067000704700200146704701F0004330B421F07C
:10068000004150EA010206D00A0DA2F56072C1F3E2
:100690001301002A02DC30BC00207047440F44EAFA
:1006A000C104C100E01830BC00EBC25000F002B938
:1006B000002801DBC0F10040002901DBC1F100414D
:1006C00081427047002801DBC0F10040002901DBB6
:1006D000C1F100418842704730B50B460146002009
:1006E0002022012409E021FA02F59D4205D303FAF4
:1006F00002F5491B04FA02F52844151EA2F1010275
:10070000F1DC30BD2DE9F05F0546002092469B46A6
:1007100088460646814640241BE028464146474617
:100720002246FFF721FD53465A46C01A914110D385
:1007300011461846224600F016F82D1A67EB0108FC
:100740004F4622460120002100F00DF817EB00096A
:100750004E41201EA4F10104DFDC484631462A4602
:100760004346BDE8F09F202A04DB203A00FA02F15C
:10077000002070479140C2F1200320FA03F319438F
:1007800090407047202A06DBCB17203A41FA02F04E
:1007900043EAE07306E041FA02F3D040C2F12002DE
:1007A00091400843194670470FB4002300B589B043
:1007B0000CA900910B996FF00042CB601E4B069381
:1007C0001E4B07930423CDE901321D4A08920246CD
:1007D0006B46002000F0E6F909B05DF814FB70B537
:1007E00086B006464FF0FF300091CDE901010020B0
:1007F00015460C4604903246694604A8FFF7D4FF1C
:1008000002460498211825B108B1084600E02046A8
:100810002860049800280DD0002A02DD0098884244
:1008200008D0081B0094CDE901043246694604A8AB
:10083000FFF7BAFF06B070BDDD0D0008FB0D000824
:10084000690A00082DE9F04791460F4680460446A4
:10085000002614F8015B2DB100F002F90068405D3C
:10086000C007F6D12B2D02D02D2D18D0641E4A467C
:100870003946204600F0D2FA27B13968A14201D1A9
:10088000C7F8008071054FF002040BD540420028E4
:1008900003DD04F099FF0460A007BDE8F08746F48B
:1008A0008066E4E70028F8DA04F08EFF04606FF059
:1008B0000040F2E70029A8BF7047401C490008BF6C
:1008C00020F00100704710B4B0FA80FC00FA0CF080
:1008D00050EA010404BF10BC704749B1CCF12004B8
:1008E00021FA04F411FA0CF118BF01212143084345
:1008F000A3EB0C01CB1D4FEA00614FEA102042BF71
:10090000002010BC704700EBC35010440029A4BF66
:1009100010BC7047401C490008BF20F0010010BC0B
:10092000704710B5141E73F1000408DA401C41F141
:10093000000192185B411A4301D120F0010010BD63
:100940002DE9F04D92469B4611B1B1FA81F202E0D9
:10095000B0FA80F220329046FFF705FF04460F46BA
:1009600040EA0A0041EA0B0153465A46084313D0B5
:10097000114653EA010019D0C8F140025046FFF772
:10098000F3FB05460E46504659464246FFF7EBFE3E
:10099000084305D0012004E020463946BDE8F08D2B
:1009A0000020054346EAE0762C4337430A98630566
:1009B000E40AA0EB08000022FD0A44EA47540A308A
:1009C00002D500200146E9E7010510196941DDE97A
:1009D000084500196941BDE8F04DA2E7C1F30A528C
:1009E000C1F3130140F2FF3341F480119A4202DA5D
:1009F00000200146704740F233439A42A2F233424C
:100A000002DC5242FFF7B0BBFFF7ADBE30B5041EAB
:100A100071F1000404DB4FF00044404264EB01013B
:100A2000141E73F1000405DB1C464FF000435242D4
:100A300063EB0403994208BF904230BD064C074D5A
:100A400006E0E06840F0010394E80700984710349E
:100A5000AC42F6D3FFF770FB6866000888660008B2
:100A6000004870476466000810B50446FFF7F8FFB9
:100A70000068005D00F0010010BD00002DE9FF4F8F
:100A8000087883B09946FF2805D0491C2D2804D04A
:100A90000024002008E000200BE00124F9E700EB2F
:100AA000800003EB4000491C0B78FF2BF7D104B109
:100AB000404200230293147819461D462D2C01D084
:100AC0002B2C04D1521C2D2C13D000240294AA46A6
:100AD0001478FF2C0FD00A25A3FB057801FB0581B4
:100AE0004FF0000C03FB0C11521CE3194AEB0101FF
:100AF000EEE70124EAE7814453EA010002D019F548
:100B0000C87F06DA03980021C0E9001107B0BDE8EC
:100B1000F08F0025AE4E2F46DFF8B882184600F061
:100B2000DAF9CDE90001B9F1000002DAC9F10004F7
:100B300000E004460023A74A1AEB030B42EB045AD9
:100B400012E0E00707D02A46334638464146FFF711
:100B500062FC074688462A46334610461946FFF788
:100B60005AFC05460E466410002CEAD1DDE900016E
:100B7000B9F1000F5A46534606DAFFF7BEFC3A4673
:100B80004346FFF7BAFC05E0FFF745FC3A4643460B
:100B9000FFF741FC029A0AB181F00041039AC2E9D1
:100BA0000001B3E72DE9FF4F1F468DB0D7E901469D
:100BB0004FF0FF382E2045464FF000090B90B969E1
:100BC0006D1C0E988847396A824688470028F6D1FE
:100BD000BAF1FF3F0AD024F4D064002E11DDBAF13F
:100BE0002B0F08D0BAF12D0F0BD102E0404611B007
:100BF0008DE744F48064B9696D1C0E98884782467D
:100C0000761E6946600501D52D2000E02B208DF869
:100C1000000001F1010B0DF1200809E0B9696D1C1C
:100C20000E98884782460F9844F40074761E05603B
:100C3000002E02DDBAF1300FF0D00B998A453ED17B
:100C400044F0800406E00F99681CA9F1010944F4FE
:100C500000740860B9696D1C761E0E98884782463C
:100C60003028F0D02BE00B998A4505D1200603D41B
:100C700044F08004761E18E0504604F087FE08B366
:100C80000DF11301761E44F400748B4508D2AAF1CD
:100C900030000BF8010B200607D5A9F1010003E095
:100CA000200602D409F101008146A00502D50F9962
:100CB000681C0860B9696D1C0E9888478246002E32
:100CC000D1DC53E0002E51DDBAF1650F02D0BAF14C
:100CD000450F4BD1A00549D5B9696D1C24F440746A
:100CE000761E0E9888478246002E0CDD2B2804D0F5
:100CF000BAF12D0F07D144F48074B9696D1C0E98B8
:100D000088478246761EE00501D52D2100E02B2183
:100D100008F8011BCDF82C8021E00DF12901761E89
:100D200044F4007488450CD2AAF1300010F0FF00A2
:100D300088F8000002D10B99884509D908F101080B
:100D400006E0E00501D5244801E042F20F7081463B
:100D5000B9696D1C0E98884782460F980560002E71
:100D600004DD504604F012FE0028D6D1F9690E9831
:100D70008847FF208BF8000088F8000000200690CC
:100D800007904B466A4608A906A8FFF777FEA0051C
:100D900002D46FF001002AE714F0240F0AD0E00714
:100DA00014D1DDE906123868031D3B600068C0E914
:100DB00000120BE0DDE90601FFF75EFC0146E007EB
:100DC00004D13868021D3A600068016028460EE7C9
:100DD000000014400000F03FF1D8FFFF426842B12C
:100DE000016811F8013B23B1521EC0E900121846F8
:100DF00070470121C160881E704742685AB1C368BC
:100E0000016843B983688B4205D0491E521CC0E972
:100E10000012002070474FF0FF3070472DE9F05F5F
:100E200082460078002715468B460AF10104B94630
:100E3000302801D09DB113E014F8010B0127782868
:100E400003D0582801D045B10AE00DB1102D07D1CB
:100E50000027102514F8010B02E0082500E00A2500
:100E60000026B0460EE005FB080005FB06F1012751
:100E700001EB10461FFA80F8B6F5803F00D3B94663
:100E800014F8010B294600F018F80028EBDABBF142
:100E9000000F05D00FB1641E00E05446CBF80040AF
:100EA000B9F1000F06D004F08FFC02210160C81ECA
:100EB000BDE8F09F48EA0640FAE73A2800D2303809
:100EC00020F02002412A01D3A2F13700884201D349
:100ED0004FF0FF3070470EB540F2334202920022CD
:100EE000CDE900221346FFF72BFD03B000BD70B51E
:100EF0008C1810F8015B15F0070301D110F8013BC5
:100F00002A1106D110F8012B03E010F8016B01F84B
:100F1000016B5B1EF9D12B0705D40023521E0DD4A3
:100F200001F8013BFAE710F8013BCB1A921C03E0F1
:100F300013F8015B01F8015B521EF9D5A142D8D329
:100F4000002070BD70B5044600688168C943C907B8
:100F500017D1816821F00101816001F093F8054605
:100F60000AE000BF01F08EF8401B022804D9206877
:100F70008068C043C00706D020688068C043C007AF
:100F8000F0D0002070BDA06A40F01000A062E06ABE
:100F900040F00100E062012070BD0000F8B50026BD
:100FA0000446009600688168C943C9072DD081684E
:100FB00041F001018160164816490068B0FBF1F06C
:100FC00000E0401E00900028FBD101F05BF80546D0
:100FD00016E000BF01F056F8401B022810D9206827
:100FE0008068C043C0070BD0A06A40F01000A06228
:100FF000E06A40F00100E06284F824600120F8BD5E
:1010000020688068C043C007E4D10020F8BD00001C
:101010000C00002040420F0010B5094CFF20216851
:10102000884755280AD055216268FF2090472168DB
:10103000FF208847552801D0012010BD002010BD99
:10104000480100202DE9F04114460D460746074EA1
:1010500008E03846791C8FB231688847641E05F86D
:10106000010BA4B2002CF4D1BDE8F08148010020AE
:101070002DE9F0410D4600244719DFF8208008E0F3
:101080003602381B401ED8F8001080B28847641C16
:10109000E4B2AC42F4D33046BDE8F0814801002010
:1010A00070B5124C054660688047280AA02101EB04
:1010B0004000E168C0B288470A2000F0A5FEE16860
:1010C000E8B288470A2000F09FFE60688047E16828
:1010D000A12088470A2000F097FE21690120884757
:1010E0000546A0688047284670BD000034010020F6
:1010F0002DE9F04114460D460646074F06E07A6892
:10110000297830469047761CB6B26D1C641EA4B296
:10111000F5D2BDE8F0810000480100202DE9F04142
:1011200016460D4680460024084F0AE0E00025FAE6
:1011300000F0C1B208EB04007A6880B29047641CEA
:10114000E4B2B442F2D3BDE8F081000048010020CF
:1011500070B5114C05460E4660688047280AA021EC
:1011600001EB4000E268C0B290470A2000F04CFE5C
:10117000E168E8B288470A2000F046FEE1683046A0
:1011800088470A2000F040FEA0688047BDE8704014
:101190000A2000F039BE0000340100207047000032
:1011A00070B50C4C054620688047A16846208847EA
:1011B00020698047012809D0A1682846884720690E
:1011C0008047012803D060688047002070BD02205E
:1011D00070BD0000640000200148816810200847AD
:1011E0009000002070B50E4C20688047A168472011
:1011F00088472069804701280FD0E068804705466E
:1012000060698047E068804700EB052085B2A069EF
:10121000804760688047284670BD002070BD000090
:1012200064000020FEE7000010B5C8210348FEF767
:10123000C4FF02490020C1F8C80010BDF407002017
:1012400070B50446FF20002231250FE0A35C584012
:101250000023060602D585EA400000E040005B1C42
:10126000DBB2C0B2082BF4D3521CD2B28A42EDD307
:1012700070BD0000014800F02DBC0000E403002018
:10128000014800F027BC0000A0030020014800F046
:1012900021BC00005C03002010B5094801F048FDA6
:1012A000084C6068FEF7B2FF074A81B260681268B6
:1012B00090476168BDE810409622014801F0EEBFFA
:1012C000D4020020AC0000201400002010B5094812
:1012D00001F02EFD084C2068FEF798FF074A81B206
:1012E0002068126890472168BDE8104096220148A6
:1012F00001F0D4BF18030020BC000020140000201F
:1013000030B590F840500124AC40C56B6C60046867
:1013100063604368102B036803D099600068C26063
:1013200030BD9A600068C16030BD70474FF4004026
:1013300000F096BD0349012008700020091D488077
:1013400070470000FC00002070477047014800F023
:10135000CCBE0000B001002010B5174800F09EFA86
:101360004FF47A71144800F0FBF920B1BDE8104049
:1013700012A004F0F5B9104800F032F9154C80B213
:101380002080FFF745F94FF06632134BFFF743F823
:101390006FF00B02FFF720F9FFF76EF90121FEF75E
:1013A00087FF6060FFF755F90246BDE810400B4625
:1013B0000AA004F0D5B90000800100204144D7AA5A
:1013C000BBBBB4EDCEF3BBF2B3ACCAB12121210D4E
:1013D0000A0000006001002066660A40B5E7B3D845
:1013E000B5E7D1B9203D20252E316620560D0A00E3
:1013F0002DE9F041234800260068C16821F0100162
:10140000C160214CA068804702F00CFE1FA120A003
:1014100003F0ECF9A06980474FF47A77384600F082
:10142000F3FC1D4D1DA0E9688847384600F0ECFC30
:101430001AA11DA004F094F9384600F0E5FC1CA0A8
:10144000696804F08DF91CA16868FEF7C1FE98B1C7
:101450001BA21CA1686803F00DFB0746FEF7DDFE2A
:10146000C5B22A46394619A004F07AF90A3D152D6D
:1014700002D80126002000E0012060713046BDE85E
:10148000F0810000D4020020000100204F4B00003A
:10149000415445300D0A0000AC00002041542B435C
:1014A00053510D0A000000002D2D3E25730D0A003A
:1014B0003C2D2D25730D0A002B43535100000000D5
:1014C0002C0000002B4353513A2000004353515F3E
:1014D000537472696E673A257320204353513A253D
:1014E000640D0A00F8B50024009490F824202546E5
:1014F000012A12D0012280F824204A681F23072ADB
:101500000DD20668776B521E02EB820293409F4316
:101510000B6893401F43776319E00220F8BD06680B
:101520000D2A0AD2376BD21F02EB820293409F43EF
:101530000B6893401F43376309E0F76A0D3A02EBEB
:10154000820293409F430B6893401F43F7620A68EF
:10155000072306680A2A0AD3F7680A3A02EB42020E
:1015600093409F438B6893401F43F76008E03769BF
:1015700002EB420293409F438B6893401F433761C5
:101580000A68102A01D0112A20D1124B02689A420F
:1015900017D193681B0219D4936843F40003936036
:1015A0000968102912D10C490C4A0968B1FBF2F103
:1015B00001EB8101490000E0491E00910029FBD1A7
:1015C00004E0816A41F020018162012480F8245006
:1015D0002046F8BD002401400C00002040420F00CE
:1015E0000068C06C704700002DE9F04104004FF026
:1015F00000057FD0A06A002628B9E66284F824603E
:10160000204600F081F82046FFF79CFCA16AC9063D
:1016100000D420B1A06A40F01000A0626AE0A16A84
:1016200021F4885141F00201A162334923688B42C1
:10163000E16904D1B1F5402F01D14FF40021277B9E
:101640004FF4807C41EA470261680A43A168614522
:1016500008D0012906D0002194F814E0BEF1010F52
:1016600002D00AE06146F7E7C7B1A76A47F0200752
:10167000A762E76A47F00107E7625F6827F46947F6
:101680000F435F60236899681C4F3940114399608C
:10169000A16861450BD0012909D00CE0DFF860E0BA
:1016A000A7690EEB47370F4347F40061E5E7218A4E
:1016B0000D05A5F580152168CB6A23F470032B4333
:1016C000CB62216889680F4B1940914208D1E662CC
:1016D000A16A21F0020141F00101A162BDE8F0819F
:1016E000A06A20F0020040F01000A062E06A40F022
:1016F0000100E0620120F1E7003C0140FDF7E1FF5D
:1017000000E0FFFFFE0E1FFF00B585B00021009135
:1017100001910291039100680E49884218D10E4848
:10172000816941F400718161816901F40071049162
:10173000816941F0100181618069694600F0100003
:1017400004900120009003200190044800F094FBD5
:1017500005B000BD0024014000100240001001400F
:101760002DE9F84300270D460446009700F08AFC57
:10177000804620688168C90508D5A06A40F020002D
:10178000A06284F824700120BDE8F8834168C9058F
:1017900003D4C06A10F4700F2AD0022000F076FD46
:1017A0003B490968B1FBF0F62068036939490B42EF
:1017B0004FEA61014FEAA1121FD1C3684FEA611CD1
:1017C00013EA0C0F19D103690B4225D1C0681042EE
:1017D00022D1142023E0681C0AD02DB100F052FC65
:1017E000A0EB0800A84203D920680068800725D52F
:1017F000206800688007EED52DE003690B4202D116
:10180000C168114206D0026923490A4206D1C06864
:10181000084203D1542002E0292000E0FC20464386
:10182000009816E0681C11D02DB100F02BFCA0EB45
:101830000800A8420AD90098B04207D2A06A40F036
:101840000400A06284F8247003209DE70098401CE7
:101850000090B042E6D321686FF012000860A06AE1
:1018600040F40070A06220688068C0F342400728FE
:101870000CD1207B50B9A06A20F48070A062A06ACD
:10188000C00403D4A06A40F00100A06200207BE7FE
:101890000C000020244992244992240070B504468B
:1018A00090F8240001280DD0012084F8240020465F
:1018B000FFF774FB02004FF0000005D084F824000D
:1018C000104670BD022070BDA16A40F20123994309
:1018D00041F48071A1621F4D23681F49AB4218D1AA
:1018E0000E6816F4702F14D0A66A46F48016A6620D
:1018F0000E68760505D5A66A26F4005646F480568D
:10190000A662A66AF6040AD5E66A26F00606E6622C
:1019100006E0A66A26F48016A6625E68E9E7E06241
:1019200084F824006FF00200186020688368C3F315
:101930004243072B05D1A84208D1096811F4702F42
:1019400004D0816841F480118160B9E7816841F475
:10195000A001F9E7002801400424014010B590F8E7
:1019600021100022022905D00421816380F8202063
:10197000012010BD01680B6823F00E030B600168A5
:101980000B6823F001030B6090F84030C46B012119
:1019900001FA03F3636080F8211080F820201046DC
:1019A00010BD00002DE9F05F90F8211000240229FD
:1019B00003D004218163012485E001680A6822F0D4
:1019C0000E020A6001680A6822F001020A603F4EB6
:1019D0003E4FB215DFF8F4C0DFF8F090DFF8ECA06E
:1019E000DFF8E8B0DFF8E4E00168783F13011502A2
:1019F000ACF1640CA9F15009AAF13C0AABF1280B37
:101A0000AEF1140E4FF48018B14227D9B9420ED06E
:101A1000614512D049451DD0514518D0594518D0BF
:101A2000714501D1424615E0294EB14201D1012252
:101A300010E0274E1436B14201D110220AE0244EA4
:101A40002836B14206D0224A3C32914201D11A4690
:101A500000E02A461E49091F0A602BE0B94213D054
:101A6000614517D0494522D051451DD059451DD05B
:101A7000714501D142461AE0B14202D14FF0807265
:101A800015E0134EB14201D1012210E0104E143680
:101A9000B14201D110220AE00D4E2836B14206D0E3
:101AA0000B4A3C32914201D11A4600E02A460749CE
:101AB00080394A60012180F82110002180F820102F
:101AC000416B01B188472046BDE8F09F800002408D
:101AD000080402402DE9F05FC16B0A6801680B68D9
:101AE000046C4FF0040808FA04F8844D844E854FC6
:101AF000DFF814C2DFF81492DFF814A2DFF814B292
:101B0000DFF814E218EA020F65D05FEA437862D585
:101B10000A68920603D40A6822F004020A60DFF819
:101B2000F0814FF48062016808F114081301140277
:101B3000414524D9A9420DD0B1420FD0B9421AD0A3
:101B4000614515D0494515D0514501D1120312E028
:101B5000594501D104220EE0714501D140220AE02D
:101B60006D4D1435A94206D06B4A2832914201D1FD
:101B70001A4600E022466749091F0A6029E0A94287
:101B800013D0B14215D0B94220D061451BD0494590
:101B90001BD0514502D14FF4800217E0414502D1DC
:101BA0004FF0806212E0594501D104220EE07145E8
:101BB00001D140220AE0584D1435A94206D0564AB8
:101BC0002832914201D11A4600E022464B49083999
:101BD0004A60C16A71E04FF0020808FA04F818EA96
:101BE000020F70D05FEA83786DD50A68920606D43A
:101BF0000A6822F00A020A60012180F82110DFF849
:101C000010814FF40072016808F1140813011402E6
:101C1000414524D9A9420DD0B1420FD0B9421AD0C2
:101C2000614515D0494515D0514501D1120312E047
:101C3000594501D102220EE0714501D120220AE06E
:101C4000354D1435A94206D0334A2832914201D18C
:101C50001A4600E022462F49091F0A6029E0A942DE
:101C600013D0B14215D0B94220D061451BD04945AF
:101C70001BD0514502D14FF4001217E0414502D16B
:101C80004FF0007212E0594501D102220EE0714579
:101C900001D120220AE0204D1435A94206D01E4A67
:101CA0002832914201D11A4600E0224613490839F0
:101CB0004A60002180F82010816A00291CD0BDE80C
:101CC000F05F0847FFE70825A540154214D01A0722
:101CD00012D50A6822F00E020A6090F84020C36B09
:101CE000012101FA02F25A60816380F8211000217B
:101CF00080F82010016BE0E7BDE8F09F080002408B
:101D00001C000240300002404400024058000240E3
:101D10006C000240080402401C04024030B560B16F
:101D20001A4B026814219A4209D2194B1344B3FB8F
:101D3000F1F18900016417490AE0012030BD134B1D
:101D40005B421344B3FBF1F1890001640F49083988
:101D5000C163022180F82110136843F6F0718B43B0
:101D6000F0E901142143D0E902452C4321430469E1
:101D700021434469214384692143194311600021AF
:101D80004163012242770177084630BD08040240D2
:101D9000F8FFFDBF0000024070B5044690F8200037
:101DA000002501280CD0012084F8200094F821603F
:101DB0000020012E06D084F820000225284670BDA0
:101DC000022070BD022684F82160A06320680668A6
:101DD00026F0010606602046FFF792FAE06A002826
:101DE0002068016802D041F00E0106E021F00401F4
:101DF00001602068016841F00A0101602068016803
:101E000041F001010160D9E770B5044600F03AF9EC
:101E10000546601C02D004480078044400F032F902
:101E2000401BA042FAD370BD0000002010B5B0F5F1
:101E3000004F0BD106A003F093FC00224FF4006189
:101E4000054800F01AF905490020087010BD00008F
:101E50004B4559310D0A0000000801406C0100207B
:101E6000044910B50A68024202D00860FFF7DEFF9D
:101E700010BD0000140401402DE9F84FDFF8C891AF
:101E8000002409F1040A0AF1040B23460F270BF181
:101E9000040ED1E00125A54006EA0502AA4276D14A
:101EA000DFF8A8C14E68A6EB0C0866452BD00DDC08
:101EB000032E34D005DC36B3012E19D0022E2FD1DB
:101EC0001BE0112E16D0122E2AD119E0B8F5881F6A
:101ED00019D006DCB8F5803F15D0B8F5801F1FD1AA
:101EE00011E0B8F5001F0ED0B8F5041F18D10AE0B4
:101EF000CB6815E0CB681B1D12E0CB6808330FE000
:101F0000CB680C330CE08B682BB1012B4FF008032E
:101F100003D0456104E0042302E0056100E00023F2
:101F2000FF2A01D8064601E000F104064FEA8405C5
:101F300001D9A5F12005D6F8008007FA05FC28EAAA
:101F40000C0803FA05F548EA0508C6F800804D6854
:101F5000ED0070D53E4DAE6946F00106AE61AD694B
:101F600024F0030605F0010500953A4D06EB050C3B
:101F7000DCF80850A607360F07FA06F825EA080528
:101F8000DFF8D480404503D14FF0000825E052E04F
:101F9000DFF8C880404502D14FF001081DE0DFF8AE
:101FA000C080404502D14FF0020816E0DFF8B4804F
:101FB000404502D14FF003080FE0DFF8AC80404508
:101FC00002D14FF0040808E0DFF8A080404502D1BC
:101FD0004FF0050801E04FF0060808FA06F848EA55
:101FE0000508CCF808804D68D9F80060ED034D462F
:101FF00001D5164300E096432E604D68DAF8006084
:10200000AD03554601D5164300E096432E604D685A
:10201000DBF80060ED025D4601D5164300E0964313
:102020002E604D68DEF80060AD02754601D516439E
:1020300000E096432E60641C0A681646E2407FF476
:1020400029AFBDE8F88F0000000401400000111026
:10205000001002400000014000080140000C014057
:10206000001001400014014000180140001C014014
:102070008068084000D0012070470AB101617047B4
:102080000904FBE701488068704700000000002059
:1020900070B5040011D021684CF6CC40086021686E
:1020A00045F255500860D4E9000141602168A068FC
:1020B0008860FFF7E7FF05460DE0012070BD00BF17
:1020C000FFF7E0FF401B272805D92068C06880077C
:1020D00001D0032070BD2068C0688007F0D121685E
:1020E0004AF6AA200860002070BD00684AF6AA21BE
:1020F00001600020704700000248816802781144A6
:102100008160704700000020074810B5016841F069
:1021100010010160032000F085F8002000F006F8AF
:1021200000F024F8002010BD0020024070B50D4DD5
:1021300004464FF47A712878B1FBF0F00A49096837
:10214000B1FBF0F000F005FC48B9102C07D20022DA
:102150002146501E00F046F800206C6070BD012042
:1021600070BD0000000000200C0000200C4808B5E5
:10217000816941F001018161816901F001010091F2
:10218000C16941F08051C161C06900F08050009088
:102190000448416821F0E06141F00071416008BDF0
:1021A000001002400000014000280DDB00F01F027B
:1021B000012191404009800000F1E020C0F8801129
:1021C000BFF34F8FBFF36F8F7047002809DB00F01C
:1021D0001F02012191404009800000F1E020C0F879
:1021E00000117047F0B40E4B1B680C46C3F302237A
:1021F000C3F10705042D00D90425191D072901D2B3
:10220000002300E0DB1E012606FA05F1491E2140ED
:1022100099409E40761E16403143F0BC03F0C4BA8C
:102220000CED00E0064900F0070208684FF6FF03D6
:10223000184040EA0220034A10430860704700003B
:102240000CED00E00000FA05BFF34F8F0548016870
:10225000054A01F4E06111430160BFF34F8F00BFF5
:10226000FDE700000CED00E00400FA0506480268F6
:1022700022F004020260012903D040BF20BF20BF2A
:10228000704730BF7047000010ED00E010B52CA47F
:1022900001461DCC86B08DE81D002DA02D4C006898
:1022A0000490002004292FD00BDC01292FD0022913
:1022B00028D100F071F96168C1F38131491C4900EE
:1022C0001EE0082920D010291CD161682268D201A3
:1022D00018D5C1F38342C9031DF8020009D561680E
:1022E00004AAC1F34041515C1B4AB2FBF1F14843DF
:1022F00001E01A4948436168490203D440000321C0
:10230000B0FBF1F006B010BD00F056F9FAE7226A12
:10231000C2F30121012903D1920701D5C803F1E7D6
:10232000022905D1626A920702D549F64040E9E7E1
:102330000329E7D121688903E4D54FF22440E1E77E
:1023400002030405060708090A0B0C0D0E0F1010F6
:10235000010200000010024000127A0000093D0056
:102360002DE9F84305460078354CC00754D0E069A4
:102370000026C00008D4E06940F08050E061E069C8
:10238000012600F0805000902E480168C90512D443
:102390000168804641F480710160FFF773FE0746D3
:1023A00005E000BFFFF76EFEC01B642823D8D8F8F5
:1023B0000000C005F6D5206A10F4407021D0A9882D
:1023C00001F4407181421CD0206A1F49012220F48F
:1023D00040700A6000220A602062C00711D0FFF737
:1023E00051FE074641F2883808E000BFFFF74AFE79
:1023F000C11B414502D90320BDE8F883206A80074C
:10240000F4D5206A696820F44070084320621EB148
:10241000E06920F08050E0612878800705D5606889
:10242000A96820F44040084360602878C00605D5BC
:102430006068696920F48000084360600020DBE781
:102440000010024000700040400442422DE9F04775
:102450000F46050061D0434E306800F00700B842D7
:1024600009D2306820F0070038433060306800F04F
:102470000700B84251D128683B4C810712D540076C
:1024800003D5606840F4E06060602878000703D5F9
:10249000606840F4605060606068A96820F0F000F7
:1024A000084360602878C00728D06868012810D0E9
:1024B0002168022810D0890700292EDA616821F0EE
:1024C000030101436160FFF7DDFD804641F2883979
:1024D0000DE021688903EFE78901EDE7FFF7D2FD01
:1024E000A0EB0801494502D90320BDE8F0876068E8
:1024F000696800F00C00B0EB810FEFD1306800F09C
:102500000700B8420BD9306820F00700384330602C
:10251000306800F00700B84201D00120E5E72878D4
:10252000400705D56068E96820F4E0600843606012
:102530002878000706D56068296920F4605040EAD1
:10254000C100606000F038F86168084AC1F3031107
:10255000515CC8400649086006480068FFF7E6FD80
:102560000020C2E70020024000100240C8650008B9
:102570000C00002004000020044805490068496858
:10258000044AC1F30221515CC84070470C0000208E
:1025900000100240D86500080448054900684968F1
:1025A000044AC1F3C221515CC84070470C000020AE
:1025B00000100240D865000812A185B00FC98DE84F
:1025C0000F0014A0144A006804905168134801F0E9
:1025D0000C03042B10D0082B0ED1C1F38343C90385
:1025E0001DF803000AD5516804AAC1F34041515CAB
:1025F0000A4A5043B0FBF1F005B070470849484320
:10260000FAE7000002030405060708090A0B0C0D8F
:102610000E0F1010010200000010024000127A009C
:1026200000093D002DE9F84F040070D02078C04D1E
:10263000C00749D06868C0F38100012807D06868E6
:10264000C0F38100022809D16868C00306D5286854
:10265000800339D560680028E7D035E06068B0F5C0
:10266000803F0BD010B1B0F5A02F11D0286820F416
:1026700080302860286820F4802002E0286840F438
:1026800080302860606890B1FFF7FCFC06460AE0E5
:10269000286840F480202860F0E700BFFFF7F2FCD4
:1026A000801B642873D828688003F7D50CE0FFF7F7
:1026B000E9FC064605E000BFFFF7E4FC801B642848
:1026C000F0D828688003F7D420789A4E80074FF01E
:1026D00001094FF0000839D5686810F00C0F07D0D9
:1026E0006868C0F38100022809D16868C00306D475
:1026F0002868800714D52069012808D110E02069D6
:10270000B0B1C6F80090FFF7BDFC074605E00AE14E
:10271000FFF7B8FCC01B0228C4D828688007F7D58B
:102720002868616920F0F80040EAC10028600DE0E7
:10273000C6F80080FFF7A6FC074604E0FFF7A2FCFE
:10274000C01B022823D828688007F7D42078000708
:102750002CD57948A169D9B1C0F80090FFF792FC57
:10276000074604E0FFF78EFCC01B02280FD8686AFA
:102770008007F7D571484FF4FA510068B0FBF1F0CB
:10278000009000BF0098411E0091FAD20EE080E058
:10279000C0F80080FFF776FC074604E0FFF772FC04
:1027A000C01B022875D8686A8007F7D420784007D4
:1027B00060D5E8690027C00008D4E86940F080507F
:1027C000E861E869012700F0805000905C480168EA
:1027D000C90513D40168834641F480710160FFF795
:1027E00051FC824606E000BFFFF74CFCA0EB0A005C
:1027F00064284ED8DBF80000C005F5D5E068012854
:102800000AD008B1052813D0286A20F001002862F8
:10281000286A20F0040002E0286A40F001002862E3
:10282000E06841F2883B98B1FFF72CFC82460BE050
:10283000286A40F004002862EEE700BFFFF722FCA0
:10284000A0EB0A0159455AD8286A8007F6D50CE052
:10285000FFF718FC824605E0FFF714FCA0EB0A0125
:1028600059454CD8286A8007F6D41FB1E86920F092
:102870008050E861E06988B36968C1F38101022989
:1028800044D00228C6F8608004D0FFF7FBFB044662
:1028900038E034E0FFF7F6FB074604E0FFF7F2FB11
:1028A000C01B02282BD828688001F7D4206AB0F515
:1028B000803F05D16868A16820F400300843686053
:1028C000D4E908010843696821F474110843686079
:1028D000C6F86090FFF7D6FB044606E025E000BF8F
:1028E000FFF7D0FB001B022809D828688001F7D524
:1028F0001BE000BFFFF7C6FB001B022802D9032024
:10290000BDE8F88F28688001F4D40EE00128F7D0E4
:102910006868226A00F48031914204D1616A00F44F
:102920007010884201D00120EAE70020E8E70000AB
:102930000010024000004242800442420C0000208D
:10294000007000404FF0E020016941F00201016198
:10295000704710B5401EB0F1807F01D3012010BD3B
:102960004FF0E02460610F21601702F01DFF00208E
:10297000A06107202061002010BD4FF0E020016918
:1029800021F00201016170477047704770B590F8FF
:102990003C20012A2CD0012480F83C40022280F8FF
:1029A0003D2003685A689D6822F070060A68324329
:1029B0005A60104B02689A420ED00F4B9A420BD0CD
:1029C000B2F1804F08D00D4B9A4205D00C4B9A4281
:1029D00002D00C4B9A4204D1496825F08003194378
:1029E000916080F83D40002180F83C10084670BDA1
:1029F000022070BD002C0140003401400004004062
:102A000000080040000C004010B5040003D094F80A
:102A10003D0010B107E0012010BD002084F83C000B
:102A2000204600F01FF8022084F83D00211D206898
:102A300002F086F8012084F8460084F83E0084F80D
:102A40003F0084F8400084F8410084F8420084F894
:102A5000430084F8440084F8450084F83D000020D9
:102A600010BD000008B5154A0168154891420ED105
:102A7000C16941F01001C161C069002200F010007D
:102A8000009008213620FFF7ADFB362010E00D4AFC
:102A9000914211D1C16941F02001C161C069002298
:102AA00000F0200000900A213720FFF79BFB372021
:102AB000BDE80840FFF789BB08BD000000100040DA
:102AC000001002400014004090F83D10012901D090
:102AD00001207047022180F83D100168CA6842F069
:102AE0000102CA6000680E4988420ED00D49884232
:102AF0000BD0B0F1804F08D00B49884205D00B496C
:102B0000884202D00A49884204D1816801F0070155
:102B1000062903D0016841F00101016000207047DF
:102B2000002C014000340140000400400008004037
:102B3000000C00400168CA6822F00102CA60016806
:102B40000A6A41F211131A4207D10A6A9B101A420B
:102B500003D10A6822F001020A60012180F83D10C9
:102B600000207047704770B50446006801694FF057
:102B70000005C943890715D4C168C943890711D421
:102B8000E91E0161012020772068806980072046C6
:102B900002D0FFF7E7FF04E000F098F8204600F0CD
:102BA00096F8257720680169C943490717D4C16899
:102BB000C943490713D46FF0040101610220207753
:102BC0002068806910F4407F204602D0FFF7CAFFDA
:102BD00004E000F07BF8204600F079F825772068C3
:102BE0000169C943090716D4C168C943090712D44A
:102BF0006FF008010161042020772068C069800718
:102C0000204602D0FFF7AEFF04E000F05FF8204658
:102C100000F05DF8257720680169C943C90617D41B
:102C2000C168C943C90613D46FF0100101610820BF
:102C300020772068C06910F4407F204602D0FFF75B
:102C400091FF04E000F042F8204600F040F82577BC
:102C500020680169C943C90708D1C168C943C907C8
:102C600004D1891E0161204600F032F82068016914
:102C7000C943090609D4C168C943090605D46FF0E0
:102C8000800101612046FFF77FFE20680169C9438A
:102C9000490609D4C168C943490605D46FF040010B
:102CA0000161204600F042F820680169C9438906A5
:102CB0000BD4C168C943890607D46FF020010161B4
:102CC0002046BDE87040FFF760BE70BD704770479A
:102CD000114A01681268914210D110494A88521C69
:102CE0004A808A88521C8A800A88521C0A800C4BAF
:102CF0005A88521C5A804A89521C4A8109490068E4
:102D00000968884206D108480168491C0160416889
:102D1000491C416070470000BC01002028000020D1
:102D20000001002004020020380000207047704796
:102D300010B504460068416994F83D20C1F3C01104
:102D4000212A0BD151B1416921F080014161606BB1
:102D500008B1FEF703FE204602F039F92068416908
:102D600094F83E20C1F38011222A0BD151B1416960
:102D700021F040014161A06B08B1FEF7EFFD204654
:102D800002F00DF9002010BD70470000F8B5026890
:102D900004461068D168536910F00F0F4FF000051A
:102DA00053D003F0010601F4907737435FD0C20798
:102DB00005D0CA0503D5226C42F001022264420705
:102DC00005D5DA0703D0226C42F0020222648207A2
:102DD00005D5DA0703D0226C42F004022264020710
:102DE00007D501F02002324303D0226C42F00802E2
:102DF0002264226C002A34D0800604D5880602D5CD
:102E0000204602F0EDF820684069216CC0F3801084
:102E1000090700D430B3204602F0C1F820684169A8
:102E200049061BD5416921F040014161A06BA8B161
:102E300058494163A06BFEF7B5FD002811D0A06B87
:102E4000416B01B0BDE8F040084783060FD58B0603
:102E50000DD52046BDE8F84002F0C2B82046FFF785
:102E600093FFF8BD2046FFF78FFF2564F8BD266B62
:102E70002023012E52D1C60650D5CE064ED510685D
:102E800050680090506940062AD5A16B08684068D8
:102E90000004000CEAD0A68D8642E7D9E085886957
:102EA000202818D0D06820F48070D0602068416954
:102EB00021F0010141612068416921F04001416137
:102EC00084F83E3025632068C16821F01001C1609C
:102ED000A06BFEF743FDA08DE18D401A81B219E091
:102EE000A08DE18D401A81B2E08D0028BED000296E
:102EF000BCD0D06820F49070D0602068426922F085
:102F00000102426184F83E3025632068C26822F0E5
:102F10001002C2602046FFF70AFFF8BD05062BD558
:102F20000D0629D594F83D002128F6D1A068B0F50A
:102F3000805F01D12069B0B1206A411C2162216803
:102F400000784860E08C401E0004000CE084E4D16E
:102F50002068C16821F08001C1602068C16841F02B
:102F60004001C160F8BD206A0088C0F308005060CD
:102F7000206A801C2062E5E74006F3D54806F1D5BB
:102F8000D168204621F04001D16084F83D3000F046
:102F900037FAF8BD994E000810B50A490446006892
:102FA0000968884202D1084840698047074920687B
:102FB0000968884204D106480068BDE8104000470F
:102FC00010BD0000D40200200001002018030020E2
:102FD0002801002070B5040004D094F83D000025BD
:102FE00010B106E0012070BD84F83C50204600F08E
:102FF00023F8242084F83D002068C16821F40051A2
:10300000C160204602F048F82068016921F490412F
:1030100001612068416921F02A0141612068C1688D
:1030200041F40051C1602564202084F83D0084F8FB
:103030003E00002070BD00002DE9F04786B000245E
:103040000094019402940394064603688948DFF8CB
:1030500020C2051502210322C71463452CD1C36980
:1030600043F40023C361C36903F400230493836919
:1030700043F0100383618069CDE9005100F0100036
:10308000CDE903207C4D69462846FEF7F5FECDE9E3
:103090000074694628460294FEF7EEFE00220621DF
:1030A0003420FFF79FF83420FFF78FF8734800684B
:1030B000C16841F0200135E0DFF8C4C1DFF8C48108
:1030C000634533D1836943F480438361836903F4A7
:1030D00080430493836943F004038361806903920E
:1030E00000F0040004904FF40070CDE9000169463F
:1030F0004046FEF7C1FECDE90054694640460294C1
:10310000FEF7BAFE002207212520FFF76BF82520E5
:10311000FFF75BF8594844300168CA6842F0200262
:10312000CA609FE0C16006B0BDE8F087DFF858C113
:103130004FF4805A4FF08009634552D1C36943F47C
:103140000033C361C36903F400330493836943F01C
:10315000040383618069039200F00400049004205A
:10316000CDE90001694645464046FEF785FE082048
:10317000CDE90004694628460294FEF77DFE444DE1
:1031800042484F4601C5102091C5414845F81049B5
:103190006C61C5E9064AFEF7C1FD08B1FEF7D4F837
:1031A00075636E623A4D394844351438C5E90004F8
:1031B000C5E902472C614FF400506C61C5E9064037
:1031C0002846FEF7ABFD08B1FEF7BEF8B563002256
:1031D000052126206E62FFF705F82620FEF7F5FF91
:1031E000A1E7DFF8B0C063459DD1C36943F48023F4
:1031F000C361C36903F480230493836943F0080324
:1032000083618069CDE9005100F00800CDE9032019
:10321000214D69462846FEF72FFECDE90074694628
:1032200028460294FEF728FE194D18488835503874
:10323000C5E90004C5E902492C616C61C5E9064A8B
:103240002846FEF76BFD08B1FEF77EF8B563002255
:10325000062127206E62FEF7C5FF2720FEF7B5FF87
:103260000B4844380068C16841F010015AE700007B
:10327000004C004000100240001001404C020020B1
:103280000038014000080140004400408000024036
:103290005C03002000480040000C014090F83E30E4
:1032A000202B0ED159B152B190F83C30012B08D0EF
:1032B000012380F83C300023036301F049BF012063
:1032C0007047022070477047704700002DE9F843AF
:1032D000044690F83D001F4616460D4620284CD166
:1032E000C5B1BEB194F83C00012846D0012084F855
:1032F0003C004FF00008C4F84080212084F83D00D5
:10330000FEF7C0FEA6848146E684A068B0F5805F23
:1033100003D004E00120BDE8F883206928B12E46DF
:103320005FF0000584F83C800EE00026FAE780217B
:10333000204601F045FFA0B9AEB116F8010B216897
:103340004860E08C401EE084E08C4B464FF0000269
:1033500000970028EBD14FF04001204601F030FFEC
:1033600030B10320D7E735F8020BC0F30800E6E7D9
:10337000202084F83D000020CDE70220CBE70000AC
:1033800070B5044690F83D00202830D169B362B38F
:1033900094F83C0001282AD0012084F83C002162E6
:1033A000A284E28400252564212084F83D00636B1B
:1033B00010489862636B1048D862636B0F481863BB
:1033C000606B134645632668606B321DFEF7E4FCB4
:1033D00021686FF04000086084F83C502068416923
:1033E00041F080014161002070BD012070BD0220CC
:1033F00070BD0000674F0008954F0008A94E0008F7
:103400007047704710B501460348FCF7E1FE0028FD
:1034100000D0012010BD0000F4070020FEE704E00A
:103420000021491CC9B20729FBD3401EC0B2F7D204
:10343000704704E00021491CC9B20729FBD3401E94
:10344000C0B2F7D27047000010B5064C01224021EF
:103450002046FEF712FE20460122BDE810408021E2
:10346000FEF70BBE000C014010B5064C01220821EE
:103470002046FEF702FE20460122BDE81040102142
:10348000FEF7FBBD00100140054810B5C06880473D
:10349000FDF7B9F8BDE810400249FCF7CBBE0000CB
:1034A00090000020CDCC8C3F70B5114C2068C168D5
:1034B00021F01001C16000F0FDFC00F0F7FA00F00F
:1034C0006BFC00F08DFA00F0B3FC00F0B1FB00F0F3
:1034D00045FB00F029FD074DA869804728780128A1
:1034E00004D12068C16841F01001C16070BD0000C6
:1034F000D4020020000100203EB5002411480094B1
:10350000019402940E4984600160047304750125DE
:1035100005614FF460214460C161FEF765F808B1B0
:10352000FDF712FF0A20CDE900056946029405481F
:10353000FDF7D8FF002801D0FDF706FF3EBD0000D3
:103540000024014080010020114808B5416941F084
:10355000010141614069002200F001000090114624
:103560000D20FEF73FFE0D20FEF72FFE0022114634
:103570001020FEF737FE1020FEF727FE002211462E
:103580001120FEF72FFEBDE808401120FEF71DBEFA
:10359000001002402DE9F04F85B000244A48009405
:1035A000019402940394816941F010018161816961
:1035B00001F010010491816941F02001816181696C
:1035C00001F020010491816941F004018161816968
:1035D00001F004010491816941F008018161806971
:1035E000DFF8E89000F008000490012258214846D6
:1035F000FEF743FDDFF8D8A04FF4C0580022414643
:103600005046FEF73AFDDFF8CCB00122D8215846EB
:10361000FEF733FD4FF2A6300325CDE900056946DC
:103620004846FEF729FC182011270126CDE900079E
:10363000CDE9024669464846FEF71EFC40F2F3100B
:10364000CDE9000569465046FEF716FC4FF22730DB
:10365000CDE9000569465846FEF70EFC4020CDE94D
:103660000006CDE9024669464846FEF705FC022001
:10367000CDE90240CDE9008669465046FEF7FCFBE5
:10368000F00300901448CDE9010469465046FEF766
:10369000F3FB0420CDE9000569461048FEF7ECFB7A
:1036A000D820CDE9000769465846CDE90245FEF726
:1036B000E3FB002209212820FEF794FD2820FEF7D5
:1036C00084FD05B0BDE8F08F0010024000100140FD
:1036D00000080140000C01400000111000140140DE
:1036E000094810B5074901600621416040F6FF71A5
:1036F0008160FEF7CDFC002803D0BDE81040FDF747
:1037000023BE10BD00300040B00100201CB50024D5
:103710000F4800940D49019401604721C0E901144C
:1037200041F28831C16080218161FFF76DF908B1F4
:10373000FDF70AFE0094694605480194FFF726F953
:10374000002801D0FDF700FE1CBD00000010004065
:10375000BC0100201CB500240F4800940D490194C1
:1037600001604721C0E901144CF25031C160802151
:103770008161FFF749F908B1FDF7E6FD009469465C
:1037800005480194FFF702F9002801D0FDF7DCFDA0
:103790001CBD000000140040040200200C4810B5BD
:1037A0000A4901604FF416514160002181600C22EA
:1037B000C160C0E904128161C161FFF70BFC002800
:1037C00003D0BDE81040FDF7BFBD10BD004C004068
:1037D0004C0200200C4810B50A4901604FF4E13159
:1037E0004160002181600C22C160C0E90412816146
:1037F000C161FFF7EFFB002803D0BDE81040FDF7E3
:10380000A3BD10BD00380140900200200C4810B547
:103810000A4901604FF4E1314160002181600C22CE
:10382000C160C0E904128161C161FFF7D3FB0028C8
:1038300003D0BDE81040FDF787BD10BD0044004037
:10384000D40200200C4810B50A4901604FF416411B
:103850004160002181600C22C160C0E904128161D5
:10386000C161FFF7B7FB002803D0BDE81040FDF7AA
:103870006BBD10BD00480040180300207CB5002639
:10388000484C0096019660688047E1688820884728
:10389000E16827208847E16837208847424DAE809D
:1038A0004FF4C876A888B04211D260688047E168BA
:1038B00088208847E168E0208847E1680020884741
:1038C00060688047E168892088470128EAD021693B
:1038D000002088478DF800002169002088478DF876
:1038E00001002169002088478DF80200216900202D
:1038F00088478DF803002169002088478DF804006F
:103900002169012088478DF80500A06880470221C1
:103910006846FDF795FC9DF80210244D244E254C79
:1039200088421BD19DF801009DF8001000EB01209A
:1039300080B2FCF76DFE204A204BFCF76CFD0022A4
:103940001F4BFCF762FDFCF797FEFCF782FE2A4650
:103950003346FCF760FDFCF78FFE206002210DF17D
:103960000300FDF76DFC9DF80510884219D19DF804
:1039700004009DF8031000EB012080B2FCF748FE24
:10398000104A114BFCF747FDFCF776FEFCF761FE91
:103990002A463346FCF73FFDFCF76EFEFCF745FE7A
:1039A00020717CBD50000020280000207B14AE4711
:1039B000E17A843F84000020F911BF620D17D13FE6
:1039C0000094B140802BD9B11188C33FFEE700229B
:1039D000134602E08354521C92B28A42FAD37047D3
:1039E0002DE9F0411D480078002835D11C4E70802B
:1039F0001A4D1C4C2D1D1CA11CA000F0F7FEA8693F
:103A00008047E1681CA088471BA11EA001F0A8FE0A
:103A10006420FEF7F9F91DA0616801F0A1FE1DA167
:103A20006068FCF7D5FB002816D11DA16068FCF783
:103A3000CFFB002810D14FF47A773846FEF7E4F92F
:103A40003846FEF7E1F9708845F6C0518842D2D376
:103A5000E869BDE8F0410047BDE8F081FC000020C6
:103A600028000020AC0000204F4B000041542B43A5
:103A700053510D0A0000000041542B434752454763
:103A80003F0D0A002D2D3E25730000003C2D2D25F5
:103A9000730D0A002B43475245473A20302C35001E
:103AA0002B43475245473A20302C31002DE9F04155
:103AB0001A48007800282FD1194D6880174E194CEC
:103AC000361D45F6C057B0698047E16816A08847A3
:103AD00015A118A001F044FE6420FEF795F91748DF
:103AE000616801F03DFE6068FCF790FB0F280CD97F
:103AF000134861680F220446891CFCF77BFB2146B2
:103B0000BDE8F0410FA001F02BBE6888B842DAD3BF
:103B1000F069BDE8F0410047BDE8F081FC000020FD
:103B200028000020AC00002041542B4347534E0D89
:103B30000A0000002D2D3E2573000000944000086F
:103B4000370B0020454332305F446174612E494D8C
:103B500045495F4275663A25730D0A00F0B589B094
:103B600020216846FCF729FB1D4A1EA1684601F08A
:103B700007FE2148007800282BD1204E70801E4D72
:103B80001F4C2D1DA8698047E16868468847694633
:103B90001CA001F0E5FD6420FEF736F91BA061686A
:103BA00001F0DEFD1BA16068FCF712FB08B10127E4
:103BB00000E000271BA16068FCF70AFB00B10120B0
:103BC000074306D118A16068FCF702FB18B1E86949
:103BD000804709B0F0BD7088B0F57A7FD2D3F6E7A0
:103BE000370B002041542B514D54434F4E4E3D3026
:103BF0002C222573220D0A00FC0000202800002042
:103C0000AC0000202D2D3E25730D0A003C2D2D25E6
:103C1000730D0A002B514D54434F4E4E3A20302C19
:103C2000302C30004F4B00004552524F52000000E4
:103C30002DE9F0472A480078002843D129A001F057
:103C40008FFD2E4E4FF00009A6F80290244D2C4C0B
:103C50002D1D4FF47A78A8698047E16829A088472C
:103C600028A131A001F07CFD0FE031A16068FCF7D4
:103C7000AFFA08B1012700E0002731A16068FCF726
:103C8000A7FA00B10120074302D170884045ECD368
:103C90006420FEF7B9F82EA0616801F061FD28A14B
:103CA0006068FCF795FA18B12BA001F059FD10E0FF
:103CB0001FA16068FCF78CFA30B12FA001F050FD15
:103CC000A5F80290BDE8F087708845F6C05188429B
:103CD000C1D3A5F80290E869BDE8F04700470000AD
:103CE000FC000020436F6E6E656374204D51545488
:103CF00020536572766572210D0A000028000020AD
:103D0000AC00002041542B514D544F50454E3D3096
:103D10002C2234352E37362E3138382E3338222C9B
:103D2000313838330D0A00002D2D3E25730D0A0061
:103D30002B514D544F50454E3A20302C300000004E
:103D40002B514D544F50454E3A20302C2D31000010
:103D50003C2D2D25730D0A00436F6E6E6563742034
:103D600054435020536572766572204661696C75C4
:103D70007265210D0A000000436F6E6E656374204A
:103D800054435020536572766572205375636365A2
:103D90007373210D0A0000002DE9F0411B480078E3
:103DA000002831D11A4E7080184D1A4C2D1DA8696B
:103DB0008047E16818A0884717A11AA001F0D0FC3D
:103DC0006420FEF721F817A0616801F0C9FC16A174
:103DD0006068FCF7FDF9002816D114A16068FCF7B3
:103DE000F7F9002810D14FF47A773846FEF70CF82F
:103DF0003846FEF709F8708845F6C0518842D6D398
:103E0000E869BDE8F0410047BDE8F081FC00002012
:103E100028000020AC00002041542B435245473F6E
:103E20000D0A0000257300002C3100002C35000025
:103E30002DE9F04116480078002826D1154D6880FC
:103E4000134E154C361D4FF47A784FF4C877B0698D
:103E50008047E16811A0884710A1144801F080FC58
:103E60004046FDF7D1FF1248616801F079FC68888F
:103E7000B84203D3F069BDE8F04100470C496068DF
:103E80000831FCF7A5F90028E1D0BDE8F081000079
:103E9000FC00002028000020AC00002041542B51E1
:103EA000494143543D310D0A00000000343B0008F5
:103EB000944000082DE9F04114480078002822D1F0
:103EC000134D6880114E134C361D4FF47A784FF421
:103ED000FA67B0698047E1680FA088474046FDF760
:103EE00093FF1048616801F03BFC6888B84203D337
:103EF000F069BDE8F04100470A4960680831FCF705
:103F000067F90028E5D0BDE8F0810000FC00002042
:103F100028000020AC00002041542B4350494E3F64
:103F20000D0A0000944000082DE9F0412148007876
:103F300000283CD1204F78801E4D204C2D1D4FF481
:103F40007A76A86980473046FDF75EFFE1681CA0DD
:103F500088473046FDF758FF19A121A001F000FC69
:103F60003046FDF751FF3046FDF74EFF1EA0616859
:103F700001F0F6FB1EA16068FCF72AF920B921A127
:103F80006068FCF725F930B101202870BDE8F041E8
:103F90001DA001F0E5BB21A16068FCF719F910B97B
:103FA0007888B042CDD3E869BDE8F0410047BDE86C
:103FB000F0810000FC00002028000020AC00002060
:103FC00041542B514D545355423D302C312C2267D6
:103FD00070732F636F6D6D616E64222C300D0A005B
:103FE0002D2D3E25730D0A003C2D2D25730D0A0045
:103FF0002B514D545355423A20302C312C302C301B
:10400000000000004F4B00004D5154542053756286
:104010002053756363657373210D0A004552524F37
:10402000520000002DE9F0411349144D00200870A2
:104030006880134C0E1D4FF4FA67B0698047E16841
:1040400010A088470FA111A001F08AFB6420FDF7A2
:10405000DBFE10A0616801F083FB6888B84203D3DF
:10406000F069BDE8F04100470CA16068FCF7B0F8CA
:104070000028E2D0BDE8F081FC00002028000020EC
:10408000AC00002041540D0A000000002D2D3E25FB
:10409000730D0A003C2D2D25730D0A004F4B0000B7
:1040A00070477047134810B5C06880471248406990
:1040B000804712480068804711484068804711488F
:1040C0008068804710480068804702E00FA001F038
:1040D00047FBFCF7A1FF0028F8D111A001F040FB3D
:1040E000002240211248FDF7C8FFBDE8104011A092
:1040F00001F036BB280000203800002050000020CE
:1041000090000020C000002034010020CEB4BCECA0
:10411000B2E2B5BD415432344330320D0A000000E2
:10412000BCECB2E2B5BD415432344330320D0A002A
:10413000001001404F4B0D0A000000002DE9F04136
:104140000025244E07462C466806050E0022402115
:104150003046FDF792FF0A20FFF761F90122402166
:104160003046FDF78AFF0A20FFF759F980213046D3
:10417000FDF77EFF641C0543E4B2082CE4D3002263
:1041800040213046FDF779FF0120FFF748F9FFB1E4
:10419000012280213046FDF770FF0120FFF73FF933
:1041A000012240213046FDF768FF0A20FFF737F96A
:1041B000002240213046FDF760FF01228021304679
:1041C000FDF75BFF0120FFF72AF92846BDE8F081E3
:1041D0000022DEE7000C01402DE9F0410025244ECD
:1041E00007462C466806050E002208213046FDF7DA
:1041F00044FF0A20FFF71DF9012208213046FDF790
:104200003CFF0A20FFF715F910213046FDF730FF7B
:10421000641C0543E4B2082CE4D300220821304694
:10422000FDF72BFF0120FFF704F9FFB10122102158
:104230003046FDF722FF0120FFF7FBF8012208219D
:104240003046FDF71AFF0A20FFF7F3F80022082195
:104250003046FDF712FF012210213046FDF70DFF19
:104260000120FFF7E6F82846BDE8F0810022DEE7EE
:104270000010014070B5234E3078012841D1224C06
:1042800022A16068FBF7A4FF002820D020A061686D
:1042900001F066FA20A221A1606800F0EBFB214D3D
:1042A00030B1FBF7BAFFC1B269701FA001F058FA34
:1042B00001F026FF23A225A1606800F0DBFB30B1EE
:1042C000FBF7ABFFC1B2297022A001F049FA28A187
:1042D0006068FBF77DFF28B129A001F041FA2D4865
:1042E000406880472CA16068FBF772FF28B12DA0C1
:1042F00001F036FA304901200870B069BDE870401D
:10430000004770BD00010020AC000020696400007F
:1043100025730D0A000000007D22000022544C226B
:104320003A0000007401002054656D70657261747C
:104330007572655F4C696D69742E544C3D25640D32
:104340000A0000002C22544C220000002254482273
:104350003A00000054656D70657261747572655F36
:104360004C696D69742E54483D25640D0A000000A7
:104370002B514D54535441543A20302C31000000FD
:1043800052657374617274204D6F64756C65212180
:10439000210D0A00140000206D6F64653A736C658E
:1043A00065700000656E74657220736C65657021C0
:1043B00021210D0A000000006C010020FDF744BF20
:1043C0002DE9F84FBF4E3078012801D17068804741
:1043D000BD4C4FF00109207928B9606A8047012857
:1043E00001D184F80490207840B92079012805D1C2
:1043F0006088B0F57A7F01D3E0688047DFF8CC822F
:10440000B8F80A00DFF8C8B20025B0F5FA6F19D97C
:104410002078012816D1A8F80A50DBF808005F467A
:104420008047AC49786888420ADCABA001F098F973
:104430000122D102AF48FDF720FEAF4981F800907C
:1044400070688047B8F80400B0F5AF6F2ED92078B7
:10445000AA4FDFF8AC9201287ED1A8F80450B868C2
:1044600080473868FCF7F5F83A79009202460B4627
:10447000A4A001F075F9C84699F80000FCF7C3F84C
:104480003968FCF715F904D2A7A001F069F9206A90
:10449000804798F80100FCF7B6F83968FCF712F984
:1044A00004D2A7A001F05CF9206A80472078012897
:1044B000D2D1DBF80400A749DFF89CA2DFF89C8288
:1044C000A74FDFF8A092A0F18140884224D8D9F804
:1044D00000104846B1F5966F1ED905607068804798
:1044E000DAF81C104620884758B9D8F810008047E1
:1044F000C8F80000FCF7ADF802460B469AA001F0A0
:104500002FF93869804778698047B8698047206902
:104510008047207801289FD19849DBF8040008449F
:104520009749884226D2D9F800104846B1F5166F4F
:1045300020D9056070688047DAF81C10462088474B
:1045400068B9D8F810008047C8F80000FCF781F877
:1045500002460B4684A000E08AE001F001F93869C8
:10456000804778698047B86980472069804720780C
:1045700001287DD18349DBF8040001448048401EB6
:10458000814224D8D9F800104846B1F5616F1ED990
:10459000056070688047DAF81C104620884758B9D3
:1045A000D8F810008047C8F80000FCF752F802461F
:1045B0000B466DA001F0D4F83869804778698047D0
:1045C000B8698047206980472078012858D16E4912
:1045D000DBF8040001446A48401E814224D8D9F81F
:1045E00000104846B1F5965F1ED905607068804797
:1045F000DAF81C104620884758B9D8F810008047D0
:10460000C8F80000FCF725F802460B4656A001F05A
:10461000A7F83869804778698047B869804720697A
:104620008047207801282BD15849DBF80400014449
:104630004848814224D8D9F80010484641F27072A7
:1046400091421DD9056070688047DAF81C10462039
:10465000884758B9D8F81000464680473060FBF7C5
:10466000F8FF02460B4640A001F07AF8386900E0F6
:1046700006E0804778698047B869804720698047AD
:104680001D4C2078012805D141A001F069F8257062
:104690006068804744480178002910D005700830D0
:1046A00042A10446FBF794FD10B143484168884796
:1046B0002046BDE8F84F4FF40071FBF77EBDBDE822
:1046C000F88F0000A4000020000100202800002036
:1046D0006001002033333340626174746572792065
:1046E000766F6C74616765206C6F7765722121212C
:1046F0000D0A0000000801406C0100208400002029
:104700007401002054656D70657261747572653D49
:10471000252E31662048756D69646974793D25647C
:1047200052480D0A0000000054656D706572617496
:10473000757265206869676865720D0A000000007F
:1047400054656D7065726174757265206C6F776504
:10475000720D0A00666606006400002090000020CA
:10476000D0000020380000204248313735302E4C30
:1047700075783A252E31660D0A000000333393BF59
:10478000CDCC0C006666A6BF9999B9BF6666C6BF58
:1047900073797320656E74657220736C6565702023
:1047A0002121210D0A000000EC05002073746172C4
:1047B0007420757000000000140000207047000095
:1047C0000A4601460148FEF7DBBD0000D402002086
:1047D00010B50446FBF71AFD214682B2BDE8104031
:1047E0000148FEF7CDBD0000D40200202DE9F041C4
:1047F000164E05460F46B0698047154C2846E168BD
:104800008847294613A000F0ABFF144D00206880B4
:1048100005E06888142802D9F069804705E010A1F6
:104820006068FBF7D5FC0028F3D00A20FDF7ECFA0E
:1048300039466068FBF7CCFC08B9F06980476168CD
:10484000BDE8F04107A000F08BBF00000001002090
:10485000AC0000202D2D3E25730D0A0028000020FD
:104860000D0A00003C2D2D25730D0A0070B512486D
:1048700001F030FC114CC4E900010F480D3801F083
:1048800029FCC4E902010E4DD4E9000100222B46A7
:10489000FBF733FE02460B460AA000F061FFD4E9A5
:1048A000020100222B46FBF728FEBDE870400246BD
:1048B0000B4607A000F054BF2A090020D0000020BA
:1048C000000059406C6F6E3D252E32660D0A0000C7
:1048D0006C61743D252E32660D0A000010B5FEF79E
:1048E0004CF82248FEF726F90D20FDF75DFC10205C
:1048F000FDF75AFC1120FDF757FC2520FDF754FC6D
:104900002620FDF751FC2720FDF74EFC3420FDF753
:104910004BFC3620FDF748FC3720FDF745FC012114
:104920000020FDF7A3FCFEF70DF81048FEF7CCF8C9
:104930000D20FDF74AFC1020FDF747FC1120FDF784
:1049400044FC2520FDF741FC2620FDF73EFC2720F6
:10495000FDF73BFC3420FDF738FC3620FDF735FC35
:10496000BDE810403720FDF730BC0000BC0100203E
:1049700010B5104C012280212046FDF77EFB01225C
:1049800040212046FDF779FB0120FEF748FD00227B
:1049900080212046FDF771FB0A20FEF740FD002232
:1049A00040212046FDF769FBBDE810400120FEF7DD
:1049B00036BD0000000C014010B5104C0122102142
:1049C0002046FDF75AFB012208212046FDF755FB42
:1049D0000120FEF72EFD002210212046FDF74DFBA1
:1049E0000A20FEF726FD002208212046FDF745FBA0
:1049F000BDE810400120FEF71CBD00000010014082
:104A00007047000010B50C4C002280212046FDF7B5
:104A100034FB012240212046FDF72FFB0120FEF749
:104A2000FEFC0A20FEF7FBFC20460122BDE81040F8
:104A30008021FDF722BB0000000C014010B50C4C9A
:104A4000002210212046FDF718FB012208212046F4
:104A5000FDF713FB0120FEF7ECFC0A20FEF7E9FC52
:104A600020460122BDE810401021FDF706BB0000E2
:104A7000001001402DE9F041074615460E46084654
:104A8000FBF7C4FBC4B231463846FBF7A1FB002854
:104A90000DD00444601C2946FBF79AFB0549002809
:104AA000886004D002780A70002101702046BDE8B9
:104AB000F0810000F0000020FDF71EBB30B595B07E
:104AC00028216846FBF779FB14210AA8FBF775FB40
:104AD00018210FA8FBF771FB0920012100904FF46A
:104AE0008030002404910691CDE901040225CDE92E
:104AF00007504FF4E01009906846FDF793FD0F2032
:104B0000CDE90A056802CDE90C4002210AA80E94FD
:104B1000FDF79CFCA80311900F950FA8FDF720FC52
:104B200015B030BD704700000148FEF71CB800000A
:104B3000BC0100200148FEF716B800000402002066
:104B4000F0B502681C4B1D4D1D4E1E4F1E4C4FF004
:104B5000804C984209D0A04207D0604505D0A842B9
:104B600003D0B04201D0B84204D122F0700E4A689E
:104B700042EA0E02984209D0A04207D0604505D013
:104B8000A84203D0B04201D0B84203D122F440750C
:104B9000CA682A434D6922F080022A4302608A686B
:104BA000C2620A688262984201D0A04201D10969BA
:104BB000016301214161F0BD002C0140000400406F
:104BC00000080040000C0040003401400148FDF79F
:104BD0007BBF0000BC0100200148FDF775BF00004D
:104BE000040200202DE9F047294C88B0294DD4E972
:104BF000020100222B46FBF780FC80468946D4E95F
:104C0000000100222B46FBF778FCDFF88CA006465B
:104C10000F46DAF80000FBF71CFD04461F480D465E
:104C20000068FBF716FD024604A80B4680E8C003A7
:104C30009AF804000094CDE9015019A1254800F02C
:104C40009FFD2448FBF7E2FA0246224822A1FF30EA
:104C5000044600F095FD29A12046FFF7C7FD03207B
:104C6000FDF7D2F8264C1B48E16888470320FDF782
:104C7000CBF824A16068FBF7ABFA002805D008B098
:104C800025A0BDE8F04700F06BBD08B0BDE8F08797
:104C9000D000002000005940840000209000002037
:104CA0004C75783A252E31662C54656D70657261AD
:104CB000747572653A252E31662C48756D3A2564F7
:104CC0002C6C6F6E3A252E32662C6C61743A252E50
:104CD000316600003909002041542B514D54505584
:104CE0004245583D302C302C302C302C22677073CC
:104CF0002F6D7367222C25640D0A00003E00000012
:104D0000AC0000202B514D5450554245583A2030AC
:104D10002C302C30000000007075626C69736820C4
:104D20006F6B0D0A0000000010B5FF211A48FBF759
:104D300044FA1948FF21FF300446FBF73EFA1748B2
:104D40000068FBF786FC02460B4615A1124800F0EE
:104D500017FD1148FBF75AFA024616A1204600F04B
:104D60000FFD1DA12046FFF741FD0320FDF74CF884
:104D70001A4C0948E16888470320FDF745F818A157
:104D80006068FBF725FA002804D0BDE8104019A0A0
:104D900000F0E6BC10BD00003909002084000020AE
:104DA00054656D70657261747572653A252E316651
:104DB0000000000041542B514D5450554245583D80
:104DC000302C302C302C302C226770732F6D736791
:104DD000222C25640D0A00003E000000AC000020DB
:104DE0002B514D5450554245583A20302C302C30E0
:104DF000000000007075626C697368206F6B0D0AAB
:104E00000000000070B5204800680068C0438006BC
:104E100020D41E4800680026C0B21D4C242801D1B1
:104E2000C4F8C860D4F8C8106054D4F8C8506D1CD9
:104E3000C4F8C8502178242907D121794D2904D1FB
:104E40006179432901D10A2809D0C82D02D3C8208D
:104E5000C4F8C800BDE870400B48FDF797BF50216B
:104E60000C48FBF7AAF92A4609490A48FBF78CF9CE
:104E70000849012081F85000C8210548C4F8C860DD
:104E8000FBF79BF9E6E700004C020020044C0040D1
:104E9000F4070020C008002010B5406A0021C18539
:104EA000C184FDF771FF10BD70B5446A2068406988
:104EB00094F83D10C0F3C0100025212904D118B189
:104EC000E584204600F083F82068406994F83E109D
:104ED000C0F38010222904D118B1E585204600F0E6
:104EE0005EF8206C40F0100020642046FDF74CFF77
:104EF00070BD10B50146406A0968096889061BD46F
:104F00000021C1850168CA6822F48072CA60016804
:104F10004A6922F001024A6101684A6922F04002AE
:104F20004A61202180F83E10016B012904D10168FB
:104F3000CA6822F01002CA60016B012902D0FEF794
:104F4000C2F910BD818DFDF7F2FE10BD10B5406AAB
:104F5000016B012902D0FEF7B7F910BD818D490818
:104F6000FDF7E5FE10BD10B50146406A0968096805
:104F700089060CD40021C18401684A6922F08002AC
:104F80004A610068C16841F04001C16010BDFEF790
:104F900037FA10BD10B5406AFEF733FA10BD01684C
:104FA000CA6822F49072CA6001684A6922F001025C
:104FB0004A61016B012904D10168CA6822F010021C
:104FC000CA60202180F83E1000210163704701680B
:104FD000CA6822F0C002CA60202180F83D107047E4
:104FE00008B590F83E10222901D0022008BD826841
:104FF0004FF480539A4201D1016921B1816A9A42EA
:105000001BD04AB10AE00268816A5268C2F3080202
:105010000A80816A891C08E0026972B102685268DC
:1050200002F07F020A70816A491C8162C18D491EAB
:105030000904090CC18503D019E002685268F1E740
:105040000168CA6822F02002CA600168CA6822F4B6
:105050008072CA6001684A6922F001024A61202117
:1050600080F83E10016B012903D0FEF72CF90020D7
:1050700008BD002101630168CA6822F01002CA60FD
:1050800001680A68D20602D50A6849680091818DD4
:10509000FDF74DFEEBE7000070B5044600680169BE
:1050A000E26821F44051114301612169A06808437D
:1050B000616908432168CA6841F20C639A4302435C
:1050C000CA6020684169A26921F4407111434161BD
:1050D0001E492068884202D1FDF75EFA01E0FDF723
:1050E0004BFA00EBC00101EB001260686421800004
:1050F000B2FBF0F3B3FBF1F36FF018067343B2FBAE
:10510000F0F5B2FBF0F605EB8305322303EB051552
:10511000B5FBF1F5B6FBF1F605F0F00505EB06156C
:10512000B2FBF0F6B2FBF0F0B0FBF1F06FF018025A
:10513000504306EB800003EB0010B0FBF1F0216858
:1051400000F00F002844886070BD00000038014066
:1051500038B5816282850025134604460564222005
:1051600084F83E00A26B13489062A26B1248D06292
:10517000A26B12481063A06B0A4645632168A06BBE
:10518000091DFCF709FE206801684168009184F858
:105190003C50C16841F48071C1602068416941F0B0
:1051A000010141612068416941F0400141610020F5
:1051B00038BD0000F34E00084D4F0008A94E00080E
:1051C0002DE9F041984617460E460446069D1DE01F
:1051D000681C1BD02DB1FCF755FFA0EB0800A842BE
:1051E00014D92068C16821F4D071C1602068416978
:1051F00021F001014161202084F83D0084F83E0047
:10520000002084F83C000320BDE8F081206800689D
:1052100036EA000004D00020B842D9D00020F3E7DD
:105220000120F9E7124818B4016808684FF000023D
:10523000C04383060F480DD40F490968446800F144
:105240000803E1544168491C4160B1F5FB7F0BD96B
:10525000426009E00B68DB43DB0605D40B68496854
:10526000009101214260017018BC0148FDF78EBD1C
:1052700090020020EC05002004380140084808B5E1
:1052800000680168C943C90605D4016840680090F8
:105290000348FDF781FEBDE808400148FDF776BDF3
:1052A000D4020020084808B500680168C943C9064F
:1052B00005D40168406800900348FDF76DFEBDE825
:1052C00008400148FDF762BD18030020FEE700001A
:1052D00070B5244E05460024002240213046FCF7DC
:1052E000CCFE0120FEF79BF8280601D5012200E044
:1052F000002280213046FCF7C0FE0120FEF78FF827
:10530000012240213046FCF7B8FE0A20FEF787F85C
:105310006806641C050EE4B2082CDDD3002240218F
:105320003046FCF7AAFE012280213046FCF7A5FE9C
:105330000120FEF774F8012240213046FCF79DFE63
:105340000A20FEF76CF880213046FCF791FE0446F7
:10535000002240213046FCF790FE0120FEF75FF866
:10536000204670BD000C014070B5244E0546002457
:10537000002208213046FCF780FE0120FEF759F894
:10538000280601D5012200E0002210213046FCF75A
:1053900074FE0120FEF74DF8012208213046FCF78B
:1053A0006CFE0A20FEF745F86806641C050EE4B2A0
:1053B000082CDDD3002208213046FCF75EFE0122D6
:1053C00010213046FCF759FE0120FEF732F8012289
:1053D00008213046FCF751FE0A20FEF72AF810217A
:1053E0003046FCF745FE0446002208213046FCF713
:1053F00044FE0120FEF71DF8204670BD001001405C
:1054000070B5124C2068FAF701FF0246194810A146
:10541000054600F0B5F918A12846FFF7E7F9032083
:10542000FCF7F2FC2068154CE16888470320FCF784
:10543000EBFC13A16068FAF7CBFE002804D0BDE8AE
:10544000704014A000F08CB970BD0000BC000020BA
:1054500041542B514D5450554245583D302C302C21
:10546000302C302C226770732F6D7367222C2564CB
:105470000D0A0000380A00203E000000AC000020A9
:105480002B514D5450554245583A20302C302C3039
:10549000000000007075626C697368206F6B0D0A04
:1054A000000000002DE9F0479548964D007801284E
:1054B0007ED1DFF85482DFF854A20027D8F8040028
:1054C000934E944CA0F18140504530D87068B0F5AF
:1054D000966F2CD9776090A12068FAF779FE28B1F1
:1054E00090A0216800F03CF9A86880478EA1206850
:1054F000FAF76EFE28B18BA0216800F031F9A86898
:1055000080478CA12068FAF763FE28B185A0216846
:1055100000F026F9A868804789A12068FAF758FEAC
:1055200028B180A0216800F01BF9A868804787494E
:10553000D8F8040008448649884230D27068B0F533
:10554000166F2CD9776074A12068FAF741FE28B154
:1055500074A0216800F004F9A868804772A120684F
:10556000FAF736FE28B16FA0216800F0F9F8A868B4
:10557000804770A12068FAF72BFE28B169A0216846
:1055800000F0EEF8A86880476DA12068FAF720FEC9
:1055900028B164A0216800F0E3F8A86880476D494D
:1055A000D8F80400DFF8A8910144A9F1010900E04E
:1055B000A1E0494530D87068B0F5616F2CD97760AB
:1055C00055A12068FAF704FE28B156A0216800F022
:1055D000C7F8A868804754A12068FAF7F9FD28B1F8
:1055E00050A0216800F0BCF8A868804751A120684D
:1055F000FAF7EEFD28B14BA0216800F0B1F8A868D9
:1056000080474FA12068FAF7E3FD28B145A0216843
:1056100000F0A6F8A86880474F49D8F80400014474
:10562000494530D87068B0F5965F2CD977603AA1BB
:105630002068FAF7CDFD28B13AA0216800F090F873
:10564000A868804738A12068FAF7C2FD28B135A0C4
:10565000216800F085F8A868804736A12068FAF72D
:10566000B7FD28B12FA0216800F07AF8A86880471C
:1056700033A12068FAF7ACFD28B12AA0216800F018
:105680006FF8A86880473549D8F8040001445145AF
:1056900031D8706841F2707188422CD977601EA1B0
:1056A0002068FAF795FD28B11EA0216800F058F88F
:1056B000A86880471CA12068FAF78AFD28B119A0C4
:1056C000216800F04DF8A86880471AA12068FAF711
:1056D0007FFD28B113A0216800F042F8A868804738
:1056E00017A12068FAF774FD28B10EA0216800F018
:1056F00037F8A86880476868BDE8F04700470000B1
:1057000000010020280100206001002066660600DC
:1057100038000020BC0000204E6F64653D30786585
:1057200037333500257300004E6F64653D307837A0
:10573000643965004E6F64653D30783030616500D6
:105740004E6F64653D30786432306400333393BF0C
:10575000CDCC0C006666A6BF9999B9BF6666C6BF78
:105760000FB4054B10B503A9044A029800F016F9CE
:1057700010BC5DF814FB0000716100087801002086
:105780000FB4084B10B504A902AA039800F006F95B
:10579000044602A9002000F098FC204610BC5DF8E9
:1057A00014FB0000CB6000080907090E002804DB89
:1057B00000F1E02080F80014704700F00F0000F1C5
:1057C000E02080F8141D7047004870477C010020DD
:1057D00001480068704700007C01002002E008C812
:1057E000121F08C1002AFAD170477047002001E05B
:1057F00001C1121F002AFBD1704700000149086057
:10580000704700007C0100202DE9FF5F82B000217D
:10581000DDE90430020DDDF840B0034318D044F652
:105820001050A2F2FF3242431514119801281FD0E4
:10583000A5EB0B00401C5FEA000A4FF000064E4F3C
:10584000DFF83891B046504615D5CAF1000413E090
:10585000119801244AA3012801D16FEA0B01029893
:10586000119AC0E90031C0E9024206B0BDE8F09FDC
:10587000CBF10000DFE704460021404A491842EB23
:105880000450CDE9001012E0E00707D032463B4655
:1058900040464946FAF7BFFD8046894632463B46B8
:1058A00010461946FAF7B7FD06460F466410002C5D
:1058B000EAD1DDE90401DDE90023BAF1000F06DADF
:1058C000FAF7A9FD42464B46FAF7A5FD05E0FAF7BF
:1058D00014FE42464B46FAF710FE04460E460022DE
:1058E000284BFBF793F803D84FF0FF30014607E051
:1058F0000022254B20463146FAF7E6FCFBF76EF80E
:10590000102409E0002C0ADB0A220023FAF7FAFE31
:10591000039B30321A55641E50EA0102F2D1641C16
:10592000039AC4F111031444119A012A03D00122ED
:1059300008430DD10AE0084304D000204FF0110BBA
:10594000119072E7A3EB0B056D1E0DE05B4504DDC6
:105950004FF0000205F1010504E003DA4FF0000208
:10596000A5F10105002AECD002981199C0E9023195
:10597000C0E9004579E70000000014400000F03F56
:10598000300000000000F0430000E03F30380A28FB
:1059900001D2012070470020704700002DE9FF4F21
:1059A00095B09B468946064600250FE2252877D10B
:1059B00000242746F84A0121059400E0044316F824
:1059C000013F203B01FA03F01042F7D130782A283A
:1059D00011D06FF02F033078A0F13002092A16D8C9
:1059E000059A44F0020402EB820203EB42021044E7
:1059F000761C0590EFE759F8042B0592002A03DA8C
:105A0000504244F40054059044F00204761C30786F
:105A10002E2816D116F8010F44F004042A280DD0C0
:105A20006FF02F023078A0F13003092B09D807EB73
:105A3000870302EB4303C718761CF3E759F8047B8E
:105A4000761C30786C280FD006DC4C2817D06828DC
:105A50000DD06A2814D104E0742810D07A280FD110
:105A60000DE044F400140AE044F4801401E044F42E
:105A700040147278824202D104F58014761C761CA0
:105A8000307866280BD013DC582877D009DC002842
:105A900075D04528F6D04628F4D047281AD19DE184
:105AA00018E0632835D0642879D0652812D195E1B3
:105AB000702873D008DC6728F1D069286FD06E2871
:105AC0000DD06F2806D1B5E073282CD0752875D07D
:105AD000782874D05A46179990476D1C75E1C4F325
